{
  "_format": "hh-sol-artifact-1",
  "contractName": "BitReGenToken",
  "sourceName": "contracts/BitReGenToken.sol",
  "abi": [
    {
      "inputs": [
        {
          "internalType": "uint256",
          "name": "_maxSupply",
          "type": "uint256"
        },
        {
          "internalType": "address",
          "name": "_presaleWallet",
          "type": "address"
        },
        {
          "internalType": "address",
          "name": "_ecosystemWallet",
          "type": "address"
        },
        {
          "internalType": "address",
          "name": "_marketingWallet",
          "type": "address"
        },
        {
          "internalType": "address",
          "name": "_liquidityWallet",
          "type": "address"
        },
        {
          "internalType": "address",
          "name": "_teamBeneficiary",
          "type": "address"
        },
        {
          "internalType": "uint64",
          "name": "_vestingStartTimestamp",
          "type": "uint64"
        },
        {
          "internalType": "uint64",
          "name": "_vestingDurationSeconds",
          "type": "uint64"
        }
      ],
      "stateMutability": "nonpayable",
      "type": "constructor"
    },
    {
      "anonymous": false,
      "inputs": [
        {
          "indexed": true,
          "internalType": "address",
          "name": "owner",
          "type": "address"
        },
        {
          "indexed": true,
          "internalType": "address",
          "name": "spender",
          "type": "address"
        },
        {
          "indexed": false,
          "internalType": "uint256",
          "name": "value",
          "type": "uint256"
        }
      ],
      "name": "Approval",
      "type": "event"
    },
    {
      "anonymous": false,
      "inputs": [
        {
          "indexed": true,
          "internalType": "address",
          "name": "previousOwner",
          "type": "address"
        },
        {
          "indexed": true,
          "internalType": "address",
          "name": "newOwner",
          "type": "address"
        }
      ],
      "name": "OwnershipTransferred",
      "type": "event"
    },
    {
      "anonymous": false,
      "inputs": [
        {
          "indexed": false,
          "internalType": "address",
          "name": "vesting",
          "type": "address"
        },
        {
          "indexed": false,
          "internalType": "address",
          "name": "beneficiary",
          "type": "address"
        },
        {
          "indexed": false,
          "internalType": "uint64",
          "name": "start",
          "type": "uint64"
        },
        {
          "indexed": false,
          "internalType": "uint64",
          "name": "duration",
          "type": "uint64"
        }
      ],
      "name": "TeamVestingCreated",
      "type": "event"
    },
    {
      "anonymous": false,
      "inputs": [
        {
          "indexed": true,
          "internalType": "address",
          "name": "from",
          "type": "address"
        },
        {
          "indexed": true,
          "internalType": "address",
          "name": "to",
          "type": "address"
        },
        {
          "indexed": false,
          "internalType": "uint256",
          "name": "value",
          "type": "uint256"
        }
      ],
      "name": "Transfer",
      "type": "event"
    },
    {
      "inputs": [],
      "name": "ECOSYS_PCT",
      "outputs": [
        {
          "internalType": "uint256",
          "name": "",
          "type": "uint256"
        }
      ],
      "stateMutability": "view",
      "type": "function"
    },
    {
      "inputs": [],
      "name": "LIQ_PCT",
      "outputs": [
        {
          "internalType": "uint256",
          "name": "",
          "type": "uint256"
        }
      ],
      "stateMutability": "view",
      "type": "function"
    },
    {
      "inputs": [],
      "name": "MAX_SUPPLY",
      "outputs": [
        {
          "internalType": "uint256",
          "name": "",
          "type": "uint256"
        }
      ],
      "stateMutability": "view",
      "type": "function"
    },
    {
      "inputs": [],
      "name": "MKT_PCT",
      "outputs": [
        {
          "internalType": "uint256",
          "name": "",
          "type": "uint256"
        }
      ],
      "stateMutability": "view",
      "type": "function"
    },
    {
      "inputs": [],
      "name": "PRESALE_PCT",
      "outputs": [
        {
          "internalType": "uint256",
          "name": "",
          "type": "uint256"
        }
      ],
      "stateMutability": "view",
      "type": "function"
    },
    {
      "inputs": [],
      "name": "TEAM_PCT",
      "outputs": [
        {
          "internalType": "uint256",
          "name": "",
          "type": "uint256"
        }
      ],
      "stateMutability": "view",
      "type": "function"
    },
    {
      "inputs": [
        {
          "internalType": "address",
          "name": "owner",
          "type": "address"
        },
        {
          "internalType": "address",
          "name": "spender",
          "type": "address"
        }
      ],
      "name": "allowance",
      "outputs": [
        {
          "internalType": "uint256",
          "name": "",
          "type": "uint256"
        }
      ],
      "stateMutability": "view",
      "type": "function"
    },
    {
      "inputs": [
        {
          "internalType": "address",
          "name": "spender",
          "type": "address"
        },
        {
          "internalType": "uint256",
          "name": "amount",
          "type": "uint256"
        }
      ],
      "name": "approve",
      "outputs": [
        {
          "internalType": "bool",
          "name": "",
          "type": "bool"
        }
      ],
      "stateMutability": "nonpayable",
      "type": "function"
    },
    {
      "inputs": [
        {
          "internalType": "address",
          "name": "account",
          "type": "address"
        }
      ],
      "name": "balanceOf",
      "outputs": [
        {
          "internalType": "uint256",
          "name": "",
          "type": "uint256"
        }
      ],
      "stateMutability": "view",
      "type": "function"
    },
    {
      "inputs": [],
      "name": "decimals",
      "outputs": [
        {
          "internalType": "uint8",
          "name": "",
          "type": "uint8"
        }
      ],
      "stateMutability": "view",
      "type": "function"
    },
    {
      "inputs": [
        {
          "internalType": "address",
          "name": "spender",
          "type": "address"
        },
        {
          "internalType": "uint256",
          "name": "subtractedValue",
          "type": "uint256"
        }
      ],
      "name": "decreaseAllowance",
      "outputs": [
        {
          "internalType": "bool",
          "name": "",
          "type": "bool"
        }
      ],
      "stateMutability": "nonpayable",
      "type": "function"
    },
    {
      "inputs": [],
      "name": "ecosystemWallet",
      "outputs": [
        {
          "internalType": "address",
          "name": "",
          "type": "address"
        }
      ],
      "stateMutability": "view",
      "type": "function"
    },
    {
      "inputs": [
        {
          "internalType": "address",
          "name": "spender",
          "type": "address"
        },
        {
          "internalType": "uint256",
          "name": "addedValue",
          "type": "uint256"
        }
      ],
      "name": "increaseAllowance",
      "outputs": [
        {
          "internalType": "bool",
          "name": "",
          "type": "bool"
        }
      ],
      "stateMutability": "nonpayable",
      "type": "function"
    },
    {
      "inputs": [],
      "name": "liquidityWallet",
      "outputs": [
        {
          "internalType": "address",
          "name": "",
          "type": "address"
        }
      ],
      "stateMutability": "view",
      "type": "function"
    },
    {
      "inputs": [],
      "name": "marketingWallet",
      "outputs": [
        {
          "internalType": "address",
          "name": "",
          "type": "address"
        }
      ],
      "stateMutability": "view",
      "type": "function"
    },
    {
      "inputs": [],
      "name": "name",
      "outputs": [
        {
          "internalType": "string",
          "name": "",
          "type": "string"
        }
      ],
      "stateMutability": "view",
      "type": "function"
    },
    {
      "inputs": [],
      "name": "owner",
      "outputs": [
        {
          "internalType": "address",
          "name": "",
          "type": "address"
        }
      ],
      "stateMutability": "view",
      "type": "function"
    },
    {
      "inputs": [],
      "name": "presaleWallet",
      "outputs": [
        {
          "internalType": "address",
          "name": "",
          "type": "address"
        }
      ],
      "stateMutability": "view",
      "type": "function"
    },
    {
      "inputs": [],
      "name": "renounceOwnership",
      "outputs": [],
      "stateMutability": "nonpayable",
      "type": "function"
    },
    {
      "inputs": [],
      "name": "symbol",
      "outputs": [
        {
          "internalType": "string",
          "name": "",
          "type": "string"
        }
      ],
      "stateMutability": "view",
      "type": "function"
    },
    {
      "inputs": [],
      "name": "teamVesting",
      "outputs": [
        {
          "internalType": "contract VestingWallet",
          "name": "",
          "type": "address"
        }
      ],
      "stateMutability": "view",
      "type": "function"
    },
    {
      "inputs": [],
      "name": "totalSupply",
      "outputs": [
        {
          "internalType": "uint256",
          "name": "",
          "type": "uint256"
        }
      ],
      "stateMutability": "view",
      "type": "function"
    },
    {
      "inputs": [
        {
          "internalType": "address",
          "name": "to",
          "type": "address"
        },
        {
          "internalType": "uint256",
          "name": "amount",
          "type": "uint256"
        }
      ],
      "name": "transfer",
      "outputs": [
        {
          "internalType": "bool",
          "name": "",
          "type": "bool"
        }
      ],
      "stateMutability": "nonpayable",
      "type": "function"
    },
    {
      "inputs": [
        {
          "internalType": "address",
          "name": "from",
          "type": "address"
        },
        {
          "internalType": "address",
          "name": "to",
          "type": "address"
        },
        {
          "internalType": "uint256",
          "name": "amount",
          "type": "uint256"
        }
      ],
      "name": "transferFrom",
      "outputs": [
        {
          "internalType": "bool",
          "name": "",
          "type": "bool"
        }
      ],
      "stateMutability": "nonpayable",
      "type": "function"
    },
    {
      "inputs": [
        {
          "internalType": "address",
          "name": "newOwner",
          "type": "address"
        }
      ],
      "name": "transferOwnership",
      "outputs": [],
      "stateMutability": "nonpayable",
      "type": "function"
    }
  ],
  "bytecode": "0x6101206040523480156200001257600080fd5b506040516200215538038062002155833981016040819052620000359162000533565b604051806040016040528060088152602001672134ba2932a3b2b760c11b8152506040518060400160405280600381526020016242524760e81b815250816003908162000083919062000676565b50600462000092828262000676565b505050620000af620000a9620003d260201b60201c565b620003d6565b620000ba33620003d6565b60008811620000fd5760405162461bcd60e51b815260206004820152600a6024820152690537570706c79203e20360b41b60448201526064015b60405180910390fd5b6001600160a01b038716158015906200011e57506001600160a01b03861615155b80156200013357506001600160a01b03851615155b80156200014857506001600160a01b03841615155b80156200015d57506001600160a01b03831615155b6200019a5760405162461bcd60e51b815260206004820152600c60248201526b5a65726f206164647265737360a01b6044820152606401620000f4565b60808890526001600160a01b0380881660a05286811660c05285811660e05284166101005260006064620001d0601e8b62000758565b620001dc919062000778565b905060006064620001ef60148c62000758565b620001fb919062000778565b9050600060646200020e60148d62000758565b6200021a919062000778565b9050600060646200022d600f8e62000758565b62000239919062000778565b9050600060646200024c600f8f62000758565b62000258919062000778565b90506200026e60a051866200042860201b60201c565b60c0516200027d908462000428565b60e0516200028c908362000428565b610100516200029c908262000428565b878787604051620002ad90620004f0565b6001600160a01b0390931683526001600160401b039182166020840152166040820152606001604051809103906000f080158015620002f0573d6000803e3d6000fd5b50600680546001600160a01b039283166001600160a01b0319909116811790915560408051918252918a1660208201526001600160401b03898116828401528816606082015290517feab50246c4eb77414ef3918629af28d6d6193bc50633f28157d16efbd07e63569181900360800190a16006546200037a906001600160a01b03168562000428565b60805160025414620003bf5760405162461bcd60e51b815260206004820152600d60248201526c09ad2dce840dad2e6dac2e8c6d609b1b6044820152606401620000f4565b50505050505050505050505050620007b1565b3390565b600580546001600160a01b038381166001600160a01b0319831681179093556040519116919082907f8be0079c531659141344cd1fd0a4f28419497f9722a3daafe3b4186f6b6457e090600090a35050565b6001600160a01b038216620004805760405162461bcd60e51b815260206004820152601f60248201527f45524332303a206d696e7420746f20746865207a65726f2061646472657373006044820152606401620000f4565b80600260008282546200049491906200079b565b90915550506001600160a01b038216600081815260208181526040808320805486019055518481527fddf252ad1be2c89b69c2b068fc378daa952ba7f163c4a11628f55a4df523b3ef910160405180910390a35050565b505050565b610d52806200140383390190565b80516001600160a01b03811681146200051657600080fd5b919050565b80516001600160401b03811681146200051657600080fd5b600080600080600080600080610100898b0312156200055157600080fd5b885197506200056360208a01620004fe565b96506200057360408a01620004fe565b95506200058360608a01620004fe565b94506200059360808a01620004fe565b9350620005a360a08a01620004fe565b9250620005b360c08a016200051b565b9150620005c360e08a016200051b565b90509295985092959890939650565b634e487b7160e01b600052604160045260246000fd5b600181811c90821680620005fd57607f821691505b6020821081036200061e57634e487b7160e01b600052602260045260246000fd5b50919050565b601f821115620004eb57600081815260208120601f850160051c810160208610156200064d5750805b601f850160051c820191505b818110156200066e5782815560010162000659565b505050505050565b81516001600160401b03811115620006925762000692620005d2565b620006aa81620006a38454620005e8565b8462000624565b602080601f831160018114620006e25760008415620006c95750858301515b600019600386901b1c1916600185901b1785556200066e565b600085815260208120601f198616915b828110156200071357888601518255948401946001909101908401620006f2565b5085821015620007325787850151600019600388901b60f8161c191681555b5050505050600190811b01905550565b634e487b7160e01b600052601160045260246000fd5b808202811582820484141762000772576200077262000742565b92915050565b6000826200079657634e487b7160e01b600052601260045260246000fd5b500490565b8082018082111562000772576200077262000742565b60805160a05160c05160e05161010051610c0d620007f6600039600061037e01526000610318015260006102a301526000610200015260006102610152610c0d6000f3fe608060405234801561001057600080fd5b50600436106101a35760003560e01c8063715018a6116100ee578063a457c2d711610097578063dd62ed3e11610071578063dd62ed3e146103a0578063ef89ce7c146103d9578063f2fde38b146103e1578063ffde733b146103d957600080fd5b8063a457c2d714610353578063a9059cbb14610366578063d46980161461037957600080fd5b80638da5cb5b116100c85780638da5cb5b1461033a57806395d89b411461034b5780639b695ecd1461030b57600080fd5b8063715018a61461030157806373dd186c1461030b57806375f0a8741461031357600080fd5b806332cb6b0c11610150578063435263ef1161012a578063435263ef1461029e578063619f3d6c146102c557806370a08231146102d857600080fd5b806332cb6b0c1461025c57806333e48c0514610283578063395093511461028b57600080fd5b80631ed77dc8116101815780631ed77dc8146101fb57806323b872dd1461023a578063313ce5671461024d57600080fd5b806306fdde03146101a8578063095ea7b3146101c657806318160ddd146101e9575b600080fd5b6101b06103f4565b6040516101bd9190610a57565b60405180910390f35b6101d96101d4366004610ac1565b610486565b60405190151581526020016101bd565b6002545b6040519081526020016101bd565b6102227f000000000000000000000000000000000000000000000000000000000000000081565b6040516001600160a01b0390911681526020016101bd565b6101d9610248366004610aeb565b6104a0565b604051601281526020016101bd565b6101ed7f000000000000000000000000000000000000000000000000000000000000000081565b6101ed601e81565b6101d9610299366004610ac1565b6104c4565b6102227f000000000000000000000000000000000000000000000000000000000000000081565b600654610222906001600160a01b031681565b6101ed6102e6366004610b27565b6001600160a01b031660009081526020819052604090205490565b610309610503565b005b6101ed600f81565b6102227f000000000000000000000000000000000000000000000000000000000000000081565b6005546001600160a01b0316610222565b6101b0610517565b6101d9610361366004610ac1565b610526565b6101d9610374366004610ac1565b6105bd565b6102227f000000000000000000000000000000000000000000000000000000000000000081565b6101ed6103ae366004610b49565b6001600160a01b03918216600090815260016020908152604080832093909416825291909152205490565b6101ed601481565b6103096103ef366004610b27565b6105cb565b60606003805461040390610b7c565b80601f016020809104026020016040519081016040528092919081815260200182805461042f90610b7c565b801561047c5780601f106104515761010080835404028352916020019161047c565b820191906000526020600020905b81548152906001019060200180831161045f57829003601f168201915b5050505050905090565b600033610494818585610644565b60019150505b92915050565b6000336104ae858285610768565b6104b98585856107fa565b506001949350505050565b3360008181526001602090815260408083206001600160a01b038716845290915281205490919061049490829086906104fe908790610bb6565b610644565b61050b61099e565b61051560006109f8565b565b60606004805461040390610b7c565b3360008181526001602090815260408083206001600160a01b0387168452909152812054909190838110156105b05760405162461bcd60e51b815260206004820152602560248201527f45524332303a2064656372656173656420616c6c6f77616e63652062656c6f77604482015264207a65726f60d81b60648201526084015b60405180910390fd5b6104b98286868403610644565b6000336104948185856107fa565b6105d361099e565b6001600160a01b0381166106385760405162461bcd60e51b815260206004820152602660248201527f4f776e61626c653a206e6577206f776e657220697320746865207a65726f206160448201526564647265737360d01b60648201526084016105a7565b610641816109f8565b50565b6001600160a01b0383166106a65760405162461bcd60e51b8152602060048201526024808201527f45524332303a20617070726f76652066726f6d20746865207a65726f206164646044820152637265737360e01b60648201526084016105a7565b6001600160a01b0382166107075760405162461bcd60e51b815260206004820152602260248201527f45524332303a20617070726f766520746f20746865207a65726f206164647265604482015261737360f01b60648201526084016105a7565b6001600160a01b0383811660008181526001602090815260408083209487168084529482529182902085905590518481527f8c5be1e5ebec7d5bd14f71427d1e84f3dd0314c0f7b2291e5b200ac8c7c3b925910160405180910390a3505050565b6001600160a01b0383811660009081526001602090815260408083209386168352929052205460001981146107f457818110156107e75760405162461bcd60e51b815260206004820152601d60248201527f45524332303a20696e73756666696369656e7420616c6c6f77616e636500000060448201526064016105a7565b6107f48484848403610644565b50505050565b6001600160a01b03831661085e5760405162461bcd60e51b815260206004820152602560248201527f45524332303a207472616e736665722066726f6d20746865207a65726f206164604482015264647265737360d81b60648201526084016105a7565b6001600160a01b0382166108c05760405162461bcd60e51b815260206004820152602360248201527f45524332303a207472616e7366657220746f20746865207a65726f206164647260448201526265737360e81b60648201526084016105a7565b6001600160a01b038316600090815260208190526040902054818110156109385760405162461bcd60e51b815260206004820152602660248201527f45524332303a207472616e7366657220616d6f756e7420657863656564732062604482015265616c616e636560d01b60648201526084016105a7565b6001600160a01b03848116600081815260208181526040808320878703905593871680835291849020805487019055925185815290927fddf252ad1be2c89b69c2b068fc378daa952ba7f163c4a11628f55a4df523b3ef910160405180910390a36107f4565b6005546001600160a01b031633146105155760405162461bcd60e51b815260206004820181905260248201527f4f776e61626c653a2063616c6c6572206973206e6f7420746865206f776e657260448201526064016105a7565b600580546001600160a01b0383811673ffffffffffffffffffffffffffffffffffffffff19831681179093556040519116919082907f8be0079c531659141344cd1fd0a4f28419497f9722a3daafe3b4186f6b6457e090600090a35050565b600060208083528351808285015260005b81811015610a8457858101830151858201604001528201610a68565b506000604082860101526040601f19601f8301168501019250505092915050565b80356001600160a01b0381168114610abc57600080fd5b919050565b60008060408385031215610ad457600080fd5b610add83610aa5565b946020939093013593505050565b600080600060608486031215610b0057600080fd5b610b0984610aa5565b9250610b1760208501610aa5565b9150604084013590509250925092565b600060208284031215610b3957600080fd5b610b4282610aa5565b9392505050565b60008060408385031215610b5c57600080fd5b610b6583610aa5565b9150610b7360208401610aa5565b90509250929050565b600181811c90821680610b9057607f821691505b602082108103610bb057634e487b7160e01b600052602260045260246000fd5b50919050565b8082018082111561049a57634e487b7160e01b600052601160045260246000fdfea264697066735822122050c5515bcef734ed1102dfbcc2d82f768b70487cbc1c7ae79cde0f74ec7f3a4064736f6c6343000814003360e0604052604051610d52380380610d52833981016040819052610022916100d0565b6001600160a01b03831661008f5760405162461bcd60e51b815260206004820152602a60248201527f56657374696e6757616c6c65743a2062656e6566696369617279206973207a65604482015269726f206164647265737360b01b606482015260840160405180910390fd5b6001600160a01b039092166080526001600160401b0390811660a0521660c052610121565b80516001600160401b03811681146100cb57600080fd5b919050565b6000806000606084860312156100e557600080fd5b83516001600160a01b03811681146100fc57600080fd5b925061010a602085016100b4565b9150610118604085016100b4565b90509250925092565b60805160a05160c051610bd26101806000396000818160fe01528181610507015261056a015260008181610241015281816104b70152818161052b01526105950152600081816101680152818161032901526104420152610bd26000f3fe6080604052600436106100b05760003560e01c806386d1a69f11610074578063a3f8eace1161004e578063a3f8eace14610212578063be9a655514610232578063fbccedae1461026f57600080fd5b806386d1a69f146101b257806396132521146101c75780639852595c146101dc57600080fd5b80630a17b06b146100bc5780630fb5a6b4146100ef578063191655871461012c57806338af3eed1461014e578063810ec23b1461019257600080fd5b366100b757005b600080fd5b3480156100c857600080fd5b506100dc6100d73660046109f9565b610284565b6040519081526020015b60405180910390f35b3480156100fb57600080fd5b507f000000000000000000000000000000000000000000000000000000000000000067ffffffffffffffff166100dc565b34801561013857600080fd5b5061014c610147366004610a2b565b6102a8565b005b34801561015a57600080fd5b506040516001600160a01b037f00000000000000000000000000000000000000000000000000000000000000001681526020016100e6565b34801561019e57600080fd5b506100dc6101ad366004610a46565b610352565b3480156101be57600080fd5b5061014c6103e8565b3480156101d357600080fd5b506000546100dc565b3480156101e857600080fd5b506100dc6101f7366004610a2b565b6001600160a01b031660009081526001602052604090205490565b34801561021e57600080fd5b506100dc61022d366004610a2b565b61046a565b34801561023e57600080fd5b507f000000000000000000000000000000000000000000000000000000000000000067ffffffffffffffff166100dc565b34801561027b57600080fd5b506100dc610497565b60006102a261029260005490565b61029c9047610a8f565b836104b3565b92915050565b60006102b38261046a565b6001600160a01b0383166000908152600160205260408120805492935083929091906102e0908490610a8f565b90915550506040518181526001600160a01b038316907fc0e523490dd523c33b1878c9eb14ff46991e3f5b2cd33710918618f2a39cba1b9060200160405180910390a261034e827f0000000000000000000000000000000000000000000000000000000000000000836105ed565b5050565b6001600160a01b0382166000908152600160205260408120546103e1906040516370a0823160e01b81523060048201526001600160a01b038616906370a0823190602401602060405180830381865afa1580156103b3573d6000803e3d6000fd5b505050506040513d601f19601f820116820180604052508101906103d79190610aa2565b61029c9190610a8f565b9392505050565b60006103f2610497565b9050806000808282546104059190610a8f565b90915550506040518181527fda9d4e5f101b8b9b1c5b76d0c5a9f7923571acfc02376aa076b75a8c080c956b9060200160405180910390a16104677f000000000000000000000000000000000000000000000000000000000000000082610659565b50565b6001600160a01b03811660009081526001602052604081205461048d8342610352565b6102a29190610abb565b600080546104a442610284565b6104ae9190610abb565b905090565b60007f000000000000000000000000000000000000000000000000000000000000000067ffffffffffffffff168267ffffffffffffffff1610156104f9575060006102a2565b61055067ffffffffffffffff7f00000000000000000000000000000000000000000000000000000000000000008116907f000000000000000000000000000000000000000000000000000000000000000016610a8f565b8267ffffffffffffffff1611156105685750816102a2565b7f000000000000000000000000000000000000000000000000000000000000000067ffffffffffffffff167f000000000000000000000000000000000000000000000000000000000000000067ffffffffffffffff166105d29067ffffffffffffffff8516610abb565b6105dc9085610ace565b6105e69190610ae5565b90506102a2565b604080516001600160a01b038416602482015260448082018490528251808303909101815260649091019091526020810180517bffffffffffffffffffffffffffffffffffffffffffffffffffffffff1663a9059cbb60e01b179052610654908490610777565b505050565b804710156106ae5760405162461bcd60e51b815260206004820152601d60248201527f416464726573733a20696e73756666696369656e742062616c616e636500000060448201526064015b60405180910390fd5b6000826001600160a01b03168260405160006040518083038185875af1925050503d80600081146106fb576040519150601f19603f3d011682016040523d82523d6000602084013e610700565b606091505b50509050806106545760405162461bcd60e51b815260206004820152603a60248201527f416464726573733a20756e61626c6520746f2073656e642076616c75652c207260448201527f6563697069656e74206d6179206861766520726576657274656400000000000060648201526084016106a5565b60006107cc826040518060400160405280602081526020017f5361666545524332303a206c6f772d6c6576656c2063616c6c206661696c6564815250856001600160a01b031661084c9092919063ffffffff16565b90508051600014806107ed5750808060200190518101906107ed9190610b07565b6106545760405162461bcd60e51b815260206004820152602a60248201527f5361666545524332303a204552433230206f7065726174696f6e20646964206e6044820152691bdd081cdd58d8d9595960b21b60648201526084016106a5565b606061085b8484600085610863565b949350505050565b6060824710156108c45760405162461bcd60e51b815260206004820152602660248201527f416464726573733a20696e73756666696369656e742062616c616e636520666f6044820152651c8818d85b1b60d21b60648201526084016106a5565b600080866001600160a01b031685876040516108e09190610b4d565b60006040518083038185875af1925050503d806000811461091d576040519150601f19603f3d011682016040523d82523d6000602084013e610922565b606091505b50915091506109338783838761093e565b979650505050505050565b606083156109ad5782516000036109a6576001600160a01b0385163b6109a65760405162461bcd60e51b815260206004820152601d60248201527f416464726573733a2063616c6c20746f206e6f6e2d636f6e747261637400000060448201526064016106a5565b508161085b565b61085b83838151156109c25781518083602001fd5b8060405162461bcd60e51b81526004016106a59190610b69565b803567ffffffffffffffff811681146109f457600080fd5b919050565b600060208284031215610a0b57600080fd5b6103e1826109dc565b80356001600160a01b03811681146109f457600080fd5b600060208284031215610a3d57600080fd5b6103e182610a14565b60008060408385031215610a5957600080fd5b610a6283610a14565b9150610a70602084016109dc565b90509250929050565b634e487b7160e01b600052601160045260246000fd5b808201808211156102a2576102a2610a79565b600060208284031215610ab457600080fd5b5051919050565b818103818111156102a2576102a2610a79565b80820281158282048414176102a2576102a2610a79565b600082610b0257634e487b7160e01b600052601260045260246000fd5b500490565b600060208284031215610b1957600080fd5b815180151581146103e157600080fd5b60005b83811015610b44578181015183820152602001610b2c565b50506000910152565b60008251610b5f818460208701610b29565b9190910192915050565b6020815260008251806020840152610b88816040850160208701610b29565b601f01601f1916919091016040019291505056fea26469706673582212203d54a4d555f9369d0a54d51550f0dc725b3e257aacb480071f7b7f783ff1a62064736f6c63430008140033",
  "linkReferences": {},
  "deployedLinkReferences": {}
}