{
  "_format": "hh-sol-artifact-1",
  "contractName": "VestingWallet",
  "sourceName": "@openzeppelin/contracts/finance/VestingWallet.sol",
  "abi": [
    {
      "inputs": [
        {
          "internalType": "address",
          "name": "beneficiaryAddress",
          "type": "address"
        },
        {
          "internalType": "uint64",
          "name": "startTimestamp",
          "type": "uint64"
        },
        {
          "internalType": "uint64",
          "name": "durationSeconds",
          "type": "uint64"
        }
      ],
      "stateMutability": "payable",
      "type": "constructor"
    },
    {
      "anonymous": false,
      "inputs": [
        {
          "indexed": true,
          "internalType": "address",
          "name": "token",
          "type": "address"
        },
        {
          "indexed": false,
          "internalType": "uint256",
          "name": "amount",
          "type": "uint256"
        }
      ],
      "name": "ERC20Released",
      "type": "event"
    },
    {
      "anonymous": false,
      "inputs": [
        {
          "indexed": false,
          "internalType": "uint256",
          "name": "amount",
          "type": "uint256"
        }
      ],
      "name": "EtherReleased",
      "type": "event"
    },
    {
      "inputs": [],
      "name": "beneficiary",
      "outputs": [
        {
          "internalType": "address",
          "name": "",
          "type": "address"
        }
      ],
      "stateMutability": "view",
      "type": "function"
    },
    {
      "inputs": [],
      "name": "duration",
      "outputs": [
        {
          "internalType": "uint256",
          "name": "",
          "type": "uint256"
        }
      ],
      "stateMutability": "view",
      "type": "function"
    },
    {
      "inputs": [
        {
          "internalType": "address",
          "name": "token",
          "type": "address"
        }
      ],
      "name": "releasable",
      "outputs": [
        {
          "internalType": "uint256",
          "name": "",
          "type": "uint256"
        }
      ],
      "stateMutability": "view",
      "type": "function"
    },
    {
      "inputs": [],
      "name": "releasable",
      "outputs": [
        {
          "internalType": "uint256",
          "name": "",
          "type": "uint256"
        }
      ],
      "stateMutability": "view",
      "type": "function"
    },
    {
      "inputs": [
        {
          "internalType": "address",
          "name": "token",
          "type": "address"
        }
      ],
      "name": "release",
      "outputs": [],
      "stateMutability": "nonpayable",
      "type": "function"
    },
    {
      "inputs": [],
      "name": "release",
      "outputs": [],
      "stateMutability": "nonpayable",
      "type": "function"
    },
    {
      "inputs": [],
      "name": "released",
      "outputs": [
        {
          "internalType": "uint256",
          "name": "",
          "type": "uint256"
        }
      ],
      "stateMutability": "view",
      "type": "function"
    },
    {
      "inputs": [
        {
          "internalType": "address",
          "name": "token",
          "type": "address"
        }
      ],
      "name": "released",
      "outputs": [
        {
          "internalType": "uint256",
          "name": "",
          "type": "uint256"
        }
      ],
      "stateMutability": "view",
      "type": "function"
    },
    {
      "inputs": [],
      "name": "start",
      "outputs": [
        {
          "internalType": "uint256",
          "name": "",
          "type": "uint256"
        }
      ],
      "stateMutability": "view",
      "type": "function"
    },
    {
      "inputs": [
        {
          "internalType": "uint64",
          "name": "timestamp",
          "type": "uint64"
        }
      ],
      "name": "vestedAmount",
      "outputs": [
        {
          "internalType": "uint256",
          "name": "",
          "type": "uint256"
        }
      ],
      "stateMutability": "view",
      "type": "function"
    },
    {
      "inputs": [
        {
          "internalType": "address",
          "name": "token",
          "type": "address"
        },
        {
          "internalType": "uint64",
          "name": "timestamp",
          "type": "uint64"
        }
      ],
      "name": "vestedAmount",
      "outputs": [
        {
          "internalType": "uint256",
          "name": "",
          "type": "uint256"
        }
      ],
      "stateMutability": "view",
      "type": "function"
    },
    {
      "stateMutability": "payable",
      "type": "receive"
    }
  ],
  "bytecode": "0x60e0604052604051610d52380380610d52833981016040819052610022916100d0565b6001600160a01b03831661008f5760405162461bcd60e51b815260206004820152602a60248201527f56657374696e6757616c6c65743a2062656e6566696369617279206973207a65604482015269726f206164647265737360b01b606482015260840160405180910390fd5b6001600160a01b039092166080526001600160401b0390811660a0521660c052610121565b80516001600160401b03811681146100cb57600080fd5b919050565b6000806000606084860312156100e557600080fd5b83516001600160a01b03811681146100fc57600080fd5b925061010a602085016100b4565b9150610118604085016100b4565b90509250925092565b60805160a05160c051610bd26101806000396000818160fe01528181610507015261056a015260008181610241015281816104b70152818161052b01526105950152600081816101680152818161032901526104420152610bd26000f3fe6080604052600436106100b05760003560e01c806386d1a69f11610074578063a3f8eace1161004e578063a3f8eace14610212578063be9a655514610232578063fbccedae1461026f57600080fd5b806386d1a69f146101b257806396132521146101c75780639852595c146101dc57600080fd5b80630a17b06b146100bc5780630fb5a6b4146100ef578063191655871461012c57806338af3eed1461014e578063810ec23b1461019257600080fd5b366100b757005b600080fd5b3480156100c857600080fd5b506100dc6100d73660046109f9565b610284565b6040519081526020015b60405180910390f35b3480156100fb57600080fd5b507f000000000000000000000000000000000000000000000000000000000000000067ffffffffffffffff166100dc565b34801561013857600080fd5b5061014c610147366004610a2b565b6102a8565b005b34801561015a57600080fd5b506040516001600160a01b037f00000000000000000000000000000000000000000000000000000000000000001681526020016100e6565b34801561019e57600080fd5b506100dc6101ad366004610a46565b610352565b3480156101be57600080fd5b5061014c6103e8565b3480156101d357600080fd5b506000546100dc565b3480156101e857600080fd5b506100dc6101f7366004610a2b565b6001600160a01b031660009081526001602052604090205490565b34801561021e57600080fd5b506100dc61022d366004610a2b565b61046a565b34801561023e57600080fd5b507f000000000000000000000000000000000000000000000000000000000000000067ffffffffffffffff166100dc565b34801561027b57600080fd5b506100dc610497565b60006102a261029260005490565b61029c9047610a8f565b836104b3565b92915050565b60006102b38261046a565b6001600160a01b0383166000908152600160205260408120805492935083929091906102e0908490610a8f565b90915550506040518181526001600160a01b038316907fc0e523490dd523c33b1878c9eb14ff46991e3f5b2cd33710918618f2a39cba1b9060200160405180910390a261034e827f0000000000000000000000000000000000000000000000000000000000000000836105ed565b5050565b6001600160a01b0382166000908152600160205260408120546103e1906040516370a0823160e01b81523060048201526001600160a01b038616906370a0823190602401602060405180830381865afa1580156103b3573d6000803e3d6000fd5b505050506040513d601f19601f820116820180604052508101906103d79190610aa2565b61029c9190610a8f565b9392505050565b60006103f2610497565b9050806000808282546104059190610a8f565b90915550506040518181527fda9d4e5f101b8b9b1c5b76d0c5a9f7923571acfc02376aa076b75a8c080c956b9060200160405180910390a16104677f000000000000000000000000000000000000000000000000000000000000000082610659565b50565b6001600160a01b03811660009081526001602052604081205461048d8342610352565b6102a29190610abb565b600080546104a442610284565b6104ae9190610abb565b905090565b60007f000000000000000000000000000000000000000000000000000000000000000067ffffffffffffffff168267ffffffffffffffff1610156104f9575060006102a2565b61055067ffffffffffffffff7f00000000000000000000000000000000000000000000000000000000000000008116907f000000000000000000000000000000000000000000000000000000000000000016610a8f565b8267ffffffffffffffff1611156105685750816102a2565b7f000000000000000000000000000000000000000000000000000000000000000067ffffffffffffffff167f000000000000000000000000000000000000000000000000000000000000000067ffffffffffffffff166105d29067ffffffffffffffff8516610abb565b6105dc9085610ace565b6105e69190610ae5565b90506102a2565b604080516001600160a01b038416602482015260448082018490528251808303909101815260649091019091526020810180517bffffffffffffffffffffffffffffffffffffffffffffffffffffffff1663a9059cbb60e01b179052610654908490610777565b505050565b804710156106ae5760405162461bcd60e51b815260206004820152601d60248201527f416464726573733a20696e73756666696369656e742062616c616e636500000060448201526064015b60405180910390fd5b6000826001600160a01b03168260405160006040518083038185875af1925050503d80600081146106fb576040519150601f19603f3d011682016040523d82523d6000602084013e610700565b606091505b50509050806106545760405162461bcd60e51b815260206004820152603a60248201527f416464726573733a20756e61626c6520746f2073656e642076616c75652c207260448201527f6563697069656e74206d6179206861766520726576657274656400000000000060648201526084016106a5565b60006107cc826040518060400160405280602081526020017f5361666545524332303a206c6f772d6c6576656c2063616c6c206661696c6564815250856001600160a01b031661084c9092919063ffffffff16565b90508051600014806107ed5750808060200190518101906107ed9190610b07565b6106545760405162461bcd60e51b815260206004820152602a60248201527f5361666545524332303a204552433230206f7065726174696f6e20646964206e6044820152691bdd081cdd58d8d9595960b21b60648201526084016106a5565b606061085b8484600085610863565b949350505050565b6060824710156108c45760405162461bcd60e51b815260206004820152602660248201527f416464726573733a20696e73756666696369656e742062616c616e636520666f6044820152651c8818d85b1b60d21b60648201526084016106a5565b600080866001600160a01b031685876040516108e09190610b4d565b60006040518083038185875af1925050503d806000811461091d576040519150601f19603f3d011682016040523d82523d6000602084013e610922565b606091505b50915091506109338783838761093e565b979650505050505050565b606083156109ad5782516000036109a6576001600160a01b0385163b6109a65760405162461bcd60e51b815260206004820152601d60248201527f416464726573733a2063616c6c20746f206e6f6e2d636f6e747261637400000060448201526064016106a5565b508161085b565b61085b83838151156109c25781518083602001fd5b8060405162461bcd60e51b81526004016106a59190610b69565b803567ffffffffffffffff811681146109f457600080fd5b919050565b600060208284031215610a0b57600080fd5b6103e1826109dc565b80356001600160a01b03811681146109f457600080fd5b600060208284031215610a3d57600080fd5b6103e182610a14565b60008060408385031215610a5957600080fd5b610a6283610a14565b9150610a70602084016109dc565b90509250929050565b634e487b7160e01b600052601160045260246000fd5b808201808211156102a2576102a2610a79565b600060208284031215610ab457600080fd5b5051919050565b818103818111156102a2576102a2610a79565b80820281158282048414176102a2576102a2610a79565b600082610b0257634e487b7160e01b600052601260045260246000fd5b500490565b600060208284031215610b1957600080fd5b815180151581146103e157600080fd5b60005b83811015610b44578181015183820152602001610b2c565b50506000910152565b60008251610b5f818460208701610b29565b9190910192915050565b6020815260008251806020840152610b88816040850160208701610b29565b601f01601f1916919091016040019291505056fea26469706673582212203d54a4d555f9369d0a54d51550f0dc725b3e257aacb480071f7b7f783ff1a62064736f6c63430008140033",
  "linkReferences": {},
  "deployedLinkReferences": {}
}