{
  "_format": "hh-sol-artifact-1",
  "contractName": "BRGPaymentGateway",
  "sourceName": "contracts/PaymentGateway.sol",
  "abi": [
    {
      "inputs": [
        {
          "internalType": "address",
          "name": "_brgToken",
          "type": "address"
        },
        {
          "internalType": "address",
          "name": "_feeRecipient",
          "type": "address"
        }
      ],
      "stateMutability": "nonpayable",
      "type": "constructor"
    },
    {
      "anonymous": false,
      "inputs": [
        {
          "indexed": false,
          "internalType": "uint256",
          "name": "newFee",
          "type": "uint256"
        }
      ],
      "name": "FeeUpdated",
      "type": "event"
    },
    {
      "anonymous": false,
      "inputs": [
        {
          "indexed": true,
          "internalType": "address",
          "name": "merchant",
          "type": "address"
        }
      ],
      "name": "MerchantVerified",
      "type": "event"
    },
    {
      "anonymous": false,
      "inputs": [
        {
          "indexed": true,
          "internalType": "address",
          "name": "previousOwner",
          "type": "address"
        },
        {
          "indexed": true,
          "internalType": "address",
          "name": "newOwner",
          "type": "address"
        }
      ],
      "name": "OwnershipTransferred",
      "type": "event"
    },
    {
      "anonymous": false,
      "inputs": [
        {
          "indexed": true,
          "internalType": "string",
          "name": "orderId",
          "type": "string"
        },
        {
          "indexed": true,
          "internalType": "address",
          "name": "merchant",
          "type": "address"
        },
        {
          "indexed": true,
          "internalType": "address",
          "name": "customer",
          "type": "address"
        },
        {
          "indexed": false,
          "internalType": "uint256",
          "name": "amount",
          "type": "uint256"
        },
        {
          "indexed": false,
          "internalType": "uint256",
          "name": "fee",
          "type": "uint256"
        }
      ],
      "name": "PaymentProcessed",
      "type": "event"
    },
    {
      "inputs": [],
      "name": "brgToken",
      "outputs": [
        {
          "internalType": "contract BitReGenToken",
          "name": "",
          "type": "address"
        }
      ],
      "stateMutability": "view",
      "type": "function"
    },
    {
      "inputs": [],
      "name": "feeRecipient",
      "outputs": [
        {
          "internalType": "address",
          "name": "",
          "type": "address"
        }
      ],
      "stateMutability": "view",
      "type": "function"
    },
    {
      "inputs": [
        {
          "internalType": "address",
          "name": "merchant",
          "type": "address"
        }
      ],
      "name": "getMerchantEarnings",
      "outputs": [
        {
          "internalType": "uint256",
          "name": "",
          "type": "uint256"
        }
      ],
      "stateMutability": "view",
      "type": "function"
    },
    {
      "inputs": [
        {
          "internalType": "string",
          "name": "orderId",
          "type": "string"
        }
      ],
      "name": "getPayment",
      "outputs": [
        {
          "components": [
            {
              "internalType": "address",
              "name": "merchant",
              "type": "address"
            },
            {
              "internalType": "address",
              "name": "customer",
              "type": "address"
            },
            {
              "internalType": "uint256",
              "name": "amount",
              "type": "uint256"
            },
            {
              "internalType": "uint256",
              "name": "fee",
              "type": "uint256"
            },
            {
              "internalType": "string",
              "name": "orderId",
              "type": "string"
            },
            {
              "internalType": "uint256",
              "name": "timestamp",
              "type": "uint256"
            },
            {
              "internalType": "bool",
              "name": "completed",
              "type": "bool"
            }
          ],
          "internalType": "struct BRGPaymentGateway.Payment",
          "name": "",
          "type": "tuple"
        }
      ],
      "stateMutability": "view",
      "type": "function"
    },
    {
      "inputs": [
        {
          "internalType": "address",
          "name": "",
          "type": "address"
        }
      ],
      "name": "merchantEarnings",
      "outputs": [
        {
          "internalType": "uint256",
          "name": "",
          "type": "uint256"
        }
      ],
      "stateMutability": "view",
      "type": "function"
    },
    {
      "inputs": [],
      "name": "owner",
      "outputs": [
        {
          "internalType": "address",
          "name": "",
          "type": "address"
        }
      ],
      "stateMutability": "view",
      "type": "function"
    },
    {
      "inputs": [
        {
          "internalType": "string",
          "name": "",
          "type": "string"
        }
      ],
      "name": "payments",
      "outputs": [
        {
          "internalType": "address",
          "name": "merchant",
          "type": "address"
        },
        {
          "internalType": "address",
          "name": "customer",
          "type": "address"
        },
        {
          "internalType": "uint256",
          "name": "amount",
          "type": "uint256"
        },
        {
          "internalType": "uint256",
          "name": "fee",
          "type": "uint256"
        },
        {
          "internalType": "string",
          "name": "orderId",
          "type": "string"
        },
        {
          "internalType": "uint256",
          "name": "timestamp",
          "type": "uint256"
        },
        {
          "internalType": "bool",
          "name": "completed",
          "type": "bool"
        }
      ],
      "stateMutability": "view",
      "type": "function"
    },
    {
      "inputs": [
        {
          "internalType": "string",
          "name": "orderId",
          "type": "string"
        },
        {
          "internalType": "address",
          "name": "merchant",
          "type": "address"
        },
        {
          "internalType": "uint256",
          "name": "amount",
          "type": "uint256"
        }
      ],
      "name": "processPayment",
      "outputs": [],
      "stateMutability": "nonpayable",
      "type": "function"
    },
    {
      "inputs": [],
      "name": "processingFee",
      "outputs": [
        {
          "internalType": "uint256",
          "name": "",
          "type": "uint256"
        }
      ],
      "stateMutability": "view",
      "type": "function"
    },
    {
      "inputs": [],
      "name": "renounceOwnership",
      "outputs": [],
      "stateMutability": "nonpayable",
      "type": "function"
    },
    {
      "inputs": [
        {
          "internalType": "address",
          "name": "newOwner",
          "type": "address"
        }
      ],
      "name": "transferOwnership",
      "outputs": [],
      "stateMutability": "nonpayable",
      "type": "function"
    },
    {
      "inputs": [
        {
          "internalType": "address",
          "name": "newRecipient",
          "type": "address"
        }
      ],
      "name": "updateFeeRecipient",
      "outputs": [],
      "stateMutability": "nonpayable",
      "type": "function"
    },
    {
      "inputs": [
        {
          "internalType": "uint256",
          "name": "newFee",
          "type": "uint256"
        }
      ],
      "name": "updateProcessingFee",
      "outputs": [],
      "stateMutability": "nonpayable",
      "type": "function"
    },
    {
      "inputs": [
        {
          "internalType": "address",
          "name": "",
          "type": "address"
        }
      ],
      "name": "verifiedMerchants",
      "outputs": [
        {
          "internalType": "bool",
          "name": "",
          "type": "bool"
        }
      ],
      "stateMutability": "view",
      "type": "function"
    },
    {
      "inputs": [
        {
          "internalType": "address",
          "name": "merchant",
          "type": "address"
        }
      ],
      "name": "verifyMerchant",
      "outputs": [],
      "stateMutability": "nonpayable",
      "type": "function"
    }
  ],
  "bytecode": "0x60a060405260c86002553480156200001657600080fd5b5060405162001428380380620014288339810160408190526200003991620000f0565b6001600055620000493362000081565b6001600160a01b03828116608052600380546001600160a01b031916918316919091179055620000793362000081565b505062000128565b600180546001600160a01b038381166001600160a01b0319831681179093556040519116919082907f8be0079c531659141344cd1fd0a4f28419497f9722a3daafe3b4186f6b6457e090600090a35050565b80516001600160a01b0381168114620000eb57600080fd5b919050565b600080604083850312156200010457600080fd5b6200010f83620000d3565b91506200011f60208401620000d3565b90509250929050565b6080516112cf62000159600039600081816101720152818161061f0152818161070601526107ee01526112cf6000f3fe608060405234801561001057600080fd5b50600436106100f55760003560e01c8063c69207a311610097578063f10673af11610066578063f10673af14610245578063f160d36914610258578063f2fde38b1461026b578063f94687131461027e57600080fd5b8063c69207a3146101e0578063d9a5721e14610200578063de1881a814610213578063ef4b4d5a1461021c57600080fd5b80635d911d12116100d35780635d911d121461016d578063715018a6146101945780638da5cb5b1461019c578063aa7496fc146101ad57600080fd5b8063370309aa146100fa578063376089ec1461010f5780634690484014610142575b600080fd5b61010d610108366004610d97565b6102a4565b005b61012f61011d366004610dcc565b60066020526000908152604090205481565b6040519081526020015b60405180910390f35b600354610155906001600160a01b031681565b6040516001600160a01b039091168152602001610139565b6101557f000000000000000000000000000000000000000000000000000000000000000081565b61010d61032d565b6001546001600160a01b0316610155565b6101d06101bb366004610dcc565b60056020526000908152604090205460ff1681565b6040519015158152602001610139565b6101f36101ee366004610e37565b610341565b6040516101399190610ebf565b61010d61020e366004610f33565b61048c565b61012f60025481565b61012f61022a366004610dcc565b6001600160a01b031660009081526006602052604090205490565b61010d610253366004610dcc565b610a60565b61010d610266366004610dcc565b610ab4565b61010d610279366004610dcc565b610b34565b61029161028c366004610fa5565b610bad565b6040516101399796959493929190611056565b6102ac610c92565b6103e88111156102f25760405162461bcd60e51b815260206004820152600c60248201526b08ccaca40e8dede40d0d2ced60a31b60448201526064015b60405180910390fd5b60028190556040518181527f8c4d35e54a3f2ef1134138fd8ea3daee6a3c89e10d2665996babdf70261e2c769060200160405180910390a150565b610335610c92565b61033f6000610cec565b565b6040805160e0810182526000808252602082018190528183018190526060808301829052608083015260a0820181905260c0820152905160049061038890859085906110a9565b90815260408051918290036020908101832060e08401835280546001600160a01b03908116855260018201541691840191909152600281015491830191909152600381015460608301526004810180546080840191906103e7906110b9565b80601f0160208091040260200160405190810160405280929190818152602001828054610413906110b9565b80156104605780601f1061043557610100808354040283529160200191610460565b820191906000526020600020905b81548152906001019060200180831161044357829003601f168201915b50505091835250506005820154602082015260069091015460ff16151560409091015290505b92915050565b610494610d3e565b6001600160a01b03821660009081526005602052604090205460ff166104fc5760405162461bcd60e51b815260206004820152601560248201527f4d65726368616e74206e6f74207665726966696564000000000000000000000060448201526064016102e9565b60006001600160a01b0316600485856040516105199291906110a9565b908152604051908190036020019020546001600160a01b03161461057f5760405162461bcd60e51b815260206004820152601460248201527f4f7264657220616c72656164792065786973747300000000000000000000000060448201526064016102e9565b600081116105cf5760405162461bcd60e51b815260206004820152601260248201527f416d6f756e74206d757374206265203e2030000000000000000000000000000060448201526064016102e9565b6000612710600254836105e29190611109565b6105ec9190611120565b905060006105fa8284611142565b6040516323b872dd60e01b8152336004820152306024820152604481018590529091507f00000000000000000000000000000000000000000000000000000000000000006001600160a01b0316906323b872dd906064016020604051808303816000875af1158015610670573d6000803e3d6000fd5b505050506040513d601f19601f820116820180604052508101906106949190611155565b6106e05760405162461bcd60e51b815260206004820152600f60248201527f5472616e73666572206661696c6564000000000000000000000000000000000060448201526064016102e9565b60405163a9059cbb60e01b81526001600160a01b038581166004830152602482018390527f0000000000000000000000000000000000000000000000000000000000000000169063a9059cbb906044016020604051808303816000875af115801561074f573d6000803e3d6000fd5b505050506040513d601f19601f820116820180604052508101906107739190611155565b6107bf5760405162461bcd60e51b815260206004820152601860248201527f4d65726368616e74207472616e73666572206661696c6564000000000000000060448201526064016102e9565b81156108a95760035460405163a9059cbb60e01b81526001600160a01b039182166004820152602481018490527f00000000000000000000000000000000000000000000000000000000000000009091169063a9059cbb906044016020604051808303816000875af1158015610839573d6000803e3d6000fd5b505050506040513d601f19601f8201168201806040525081019061085d9190611155565b6108a95760405162461bcd60e51b815260206004820152601360248201527f466565207472616e73666572206661696c65640000000000000000000000000060448201526064016102e9565b6040518060e00160405280856001600160a01b03168152602001336001600160a01b0316815260200184815260200183815260200187878080601f01602080910402602001604051908101604052809392919081815260200183838082843760009201919091525050509082525042602082015260016040918201525160049061093690899089906110a9565b9081526040805160209281900383019020835181546001600160a01b03199081166001600160a01b03928316178355938501516001830180549095169116179092558201516002820155606082015160038201556080820151600482019061099e90826111c6565b5060a0820151600582015560c0909101516006918201805460ff19169115159190911790556001600160a01b03851660009081526020919091526040812080548392906109ec908490611286565b909155505060405133906001600160a01b03861690610a0e90899089906110a9565b6040805191829003822087835260208301879052917fdbee4180891fc092dff37a25ad8932617ce3e84d6a147867a593a04efef6f97a910160405180910390a45050610a5a6001600055565b50505050565b610a68610c92565b6001600160a01b038116600081815260056020526040808220805460ff19166001179055517f07f8600eb88edc5490dd7c2155a5db10ad400a420210df3f933879bdfcdaff529190a250565b610abc610c92565b6001600160a01b038116610b125760405162461bcd60e51b815260206004820152600f60248201527f496e76616c69642061646472657373000000000000000000000000000000000060448201526064016102e9565b600380546001600160a01b0319166001600160a01b0392909216919091179055565b610b3c610c92565b6001600160a01b038116610ba15760405162461bcd60e51b815260206004820152602660248201527f4f776e61626c653a206e6577206f776e657220697320746865207a65726f206160448201526564647265737360d01b60648201526084016102e9565b610baa81610cec565b50565b805160208183018101805160048083529383019290940191909120929052815460018301546002840154600385015493850180546001600160a01b0394851696949093169491939192610bff906110b9565b80601f0160208091040260200160405190810160405280929190818152602001828054610c2b906110b9565b8015610c785780601f10610c4d57610100808354040283529160200191610c78565b820191906000526020600020905b815481529060010190602001808311610c5b57829003601f168201915b50505050600583015460069093015491929160ff16905087565b6001546001600160a01b0316331461033f5760405162461bcd60e51b815260206004820181905260248201527f4f776e61626c653a2063616c6c6572206973206e6f7420746865206f776e657260448201526064016102e9565b600180546001600160a01b038381166001600160a01b0319831681179093556040519116919082907f8be0079c531659141344cd1fd0a4f28419497f9722a3daafe3b4186f6b6457e090600090a35050565b600260005403610d905760405162461bcd60e51b815260206004820152601f60248201527f5265656e7472616e637947756172643a207265656e7472616e742063616c6c0060448201526064016102e9565b6002600055565b600060208284031215610da957600080fd5b5035919050565b80356001600160a01b0381168114610dc757600080fd5b919050565b600060208284031215610dde57600080fd5b610de782610db0565b9392505050565b60008083601f840112610e0057600080fd5b50813567ffffffffffffffff811115610e1857600080fd5b602083019150836020828501011115610e3057600080fd5b9250929050565b60008060208385031215610e4a57600080fd5b823567ffffffffffffffff811115610e6157600080fd5b610e6d85828601610dee565b90969095509350505050565b6000815180845260005b81811015610e9f57602081850181015186830182015201610e83565b506000602082860101526020601f19601f83011685010191505092915050565b6020815260006001600160a01b03808451166020840152806020850151166040840152506040830151606083015260608301516080830152608083015160e060a0840152610f11610100840182610e79565b905060a084015160c084015260c0840151151560e08401528091505092915050565b60008060008060608587031215610f4957600080fd5b843567ffffffffffffffff811115610f6057600080fd5b610f6c87828801610dee565b9095509350610f7f905060208601610db0565b9396929550929360400135925050565b634e487b7160e01b600052604160045260246000fd5b600060208284031215610fb757600080fd5b813567ffffffffffffffff80821115610fcf57600080fd5b818401915084601f830112610fe357600080fd5b813581811115610ff557610ff5610f8f565b604051601f8201601f19908116603f0116810190838211818310171561101d5761101d610f8f565b8160405282815287602084870101111561103657600080fd5b826020860160208301376000928101602001929092525095945050505050565b60006001600160a01b03808a16835280891660208401525086604083015285606083015260e0608083015261108e60e0830186610e79565b60a08301949094525090151560c09091015295945050505050565b8183823760009101908152919050565b600181811c908216806110cd57607f821691505b6020821081036110ed57634e487b7160e01b600052602260045260246000fd5b50919050565b634e487b7160e01b600052601160045260246000fd5b8082028115828204841417610486576104866110f3565b60008261113d57634e487b7160e01b600052601260045260246000fd5b500490565b81810381811115610486576104866110f3565b60006020828403121561116757600080fd5b81518015158114610de757600080fd5b601f8211156111c157600081815260208120601f850160051c8101602086101561119e5750805b601f850160051c820191505b818110156111bd578281556001016111aa565b5050505b505050565b815167ffffffffffffffff8111156111e0576111e0610f8f565b6111f4816111ee84546110b9565b84611177565b602080601f83116001811461122957600084156112115750858301515b600019600386901b1c1916600185901b1785556111bd565b600085815260208120601f198616915b8281101561125857888601518255948401946001909101908401611239565b50858210156112765787850151600019600388901b60f8161c191681555b5050505050600190811b01905550565b80820180821115610486576104866110f356fea2646970667358221220bd06a51467f344043062e9758cb88b0e5873e82f3aeb01b81349e2830ecf163964736f6c63430008140033",
  "linkReferences": {},
  "deployedLinkReferences": {}
}